:1000000009C019C018C017C016C015C014C013C04D
:1000100012C011C011241FBECFE9CDBF10E0A0E671
:10002000B0E0EAE3F1E002C005900D92A837B10715
:10003000D9F731D080C0E4CFF894B99AC19808B20A
:1000400093E0262F2A95F1F780FB01F89695879586
:1000500008BAB9F7B9988AB780648ABF0895B99881
:10006000282F80E8B199FECFF8942150F1F7262F80
:10007000B19908948795C8F72A95F1F70895CF9319
:10008000DF93EC018991882319F061E5D5DFFACF80
:10009000DF91CF910895CF93DF93CDB7DD27C45083
:1000A000CDBFF89410E04AE0BE016F5F7F4F812F13
:1000B00090E00ED011BF80E690E0E1DFCE01019626
:1000C000DEDF8EE690E0DBDF1F5F113860F3EACF02
:1000D000BB274A3031F4992322F4BDE290958195F3
:1000E0009F4F01C0BB27FB015527AA27880F991FE7
:1000F000AA1FA41710F0A41B83955051B9F7A05D57
:10010000AA3308F0A95DA193009779F7B111B193D3
:100110001192CB0100C0DC01FC01672F71917723A4
:10012000E1F7329704C07C916D9370836291AE17B2
:0A013000BF07C8F30895F894FFCF4D
:10013A002A2A2A2A2A204F534343414C3D00202A87
:08014A002A2A2A2A0D0A0000EE
:00000001FF
